{
  "address": "0x9B0dcF74d67c95B572922dEAdf43e57208754b36",
  "abi": [
    {
      "inputs": [
        {
          "internalType": "address",
          "name": "token_addr",
          "type": "address"
        }
      ],
      "stateMutability": "nonpayable",
      "type": "constructor"
    },
    {
      "anonymous": false,
      "inputs": [
        {
          "indexed": false,
          "internalType": "address",
          "name": "swapper",
          "type": "address"
        },
        {
          "indexed": false,
          "internalType": "uint256",
          "name": "tokenOutput",
          "type": "uint256"
        },
        {
          "indexed": false,
          "internalType": "uint256",
          "name": "ethInput",
          "type": "uint256"
        }
      ],
      "name": "EthToTokenSwap",
      "type": "event"
    },
    {
      "anonymous": false,
      "inputs": [
        {
          "indexed": false,
          "internalType": "address",
          "name": "liquidityProvider",
          "type": "address"
        },
        {
          "indexed": false,
          "internalType": "uint256",
          "name": "liquidityMinted",
          "type": "uint256"
        },
        {
          "indexed": false,
          "internalType": "uint256",
          "name": "ethInput",
          "type": "uint256"
        },
        {
          "indexed": false,
          "internalType": "uint256",
          "name": "tokensInput",
          "type": "uint256"
        }
      ],
      "name": "LiquidityProvided",
      "type": "event"
    },
    {
      "anonymous": false,
      "inputs": [
        {
          "indexed": false,
          "internalType": "address",
          "name": "liquidityRemover",
          "type": "address"
        },
        {
          "indexed": false,
          "internalType": "uint256",
          "name": "liquidityWithdrawn",
          "type": "uint256"
        },
        {
          "indexed": false,
          "internalType": "uint256",
          "name": "tokensOutput",
          "type": "uint256"
        },
        {
          "indexed": false,
          "internalType": "uint256",
          "name": "ethOutput",
          "type": "uint256"
        }
      ],
      "name": "LiquidityRemoved",
      "type": "event"
    },
    {
      "anonymous": false,
      "inputs": [
        {
          "indexed": false,
          "internalType": "address",
          "name": "swapper",
          "type": "address"
        },
        {
          "indexed": false,
          "internalType": "uint256",
          "name": "tokensInput",
          "type": "uint256"
        },
        {
          "indexed": false,
          "internalType": "uint256",
          "name": "ethOutput",
          "type": "uint256"
        }
      ],
      "name": "TokenToEthSwap",
      "type": "event"
    },
    {
      "inputs": [],
      "name": "deposit",
      "outputs": [
        {
          "internalType": "uint256",
          "name": "tokensDeposited",
          "type": "uint256"
        }
      ],
      "stateMutability": "payable",
      "type": "function"
    },
    {
      "inputs": [],
      "name": "ethToToken",
      "outputs": [
        {
          "internalType": "uint256",
          "name": "tokenOutput",
          "type": "uint256"
        }
      ],
      "stateMutability": "payable",
      "type": "function"
    },
    {
      "inputs": [
        {
          "internalType": "address",
          "name": "lp",
          "type": "address"
        }
      ],
      "name": "getLiquidity",
      "outputs": [
        {
          "internalType": "uint256",
          "name": "",
          "type": "uint256"
        }
      ],
      "stateMutability": "view",
      "type": "function"
    },
    {
      "inputs": [
        {
          "internalType": "uint256",
          "name": "tokens",
          "type": "uint256"
        }
      ],
      "name": "init",
      "outputs": [
        {
          "internalType": "uint256",
          "name": "",
          "type": "uint256"
        }
      ],
      "stateMutability": "payable",
      "type": "function"
    },
    {
      "inputs": [
        {
          "internalType": "address",
          "name": "",
          "type": "address"
        }
      ],
      "name": "liquidity",
      "outputs": [
        {
          "internalType": "uint256",
          "name": "",
          "type": "uint256"
        }
      ],
      "stateMutability": "view",
      "type": "function"
    },
    {
      "inputs": [
        {
          "internalType": "uint256",
          "name": "xInput",
          "type": "uint256"
        },
        {
          "internalType": "uint256",
          "name": "xReserves",
          "type": "uint256"
        },
        {
          "internalType": "uint256",
          "name": "yReserves",
          "type": "uint256"
        }
      ],
      "name": "price",
      "outputs": [
        {
          "internalType": "uint256",
          "name": "yOutput",
          "type": "uint256"
        }
      ],
      "stateMutability": "pure",
      "type": "function"
    },
    {
      "inputs": [
        {
          "internalType": "uint256",
          "name": "tokenInput",
          "type": "uint256"
        }
      ],
      "name": "tokenToEth",
      "outputs": [
        {
          "internalType": "uint256",
          "name": "ethOutput",
          "type": "uint256"
        }
      ],
      "stateMutability": "nonpayable",
      "type": "function"
    },
    {
      "inputs": [],
      "name": "totalLiquidity",
      "outputs": [
        {
          "internalType": "uint256",
          "name": "",
          "type": "uint256"
        }
      ],
      "stateMutability": "view",
      "type": "function"
    },
    {
      "inputs": [
        {
          "internalType": "uint256",
          "name": "amount",
          "type": "uint256"
        }
      ],
      "name": "withdraw",
      "outputs": [
        {
          "internalType": "uint256",
          "name": "ethAmount",
          "type": "uint256"
        },
        {
          "internalType": "uint256",
          "name": "tokenAmount",
          "type": "uint256"
        }
      ],
      "stateMutability": "nonpayable",
      "type": "function"
    }
  ],
  "transactionHash": "0x9b7418af5f8773f77d279d978f4f50ef374b7efa5b6c51ec03262d7fe754e76d",
  "args": [
    "0x020a1b49deDBAD73511C7f76D3362CCf9B9ea533"
  ],
  "numDeployments": 1,
  "solcInputHash": "a91ac53bfbf1857a9d5079bf7faefb7a",
  "bytecode": "0x608060405234801561001057600080fd5b50604051610cec380380610cec83398101604081905261002f91610054565b600080546001600160a01b0319166001600160a01b0392909216919091179055610084565b60006020828403121561006657600080fd5b81516001600160a01b038116811461007d57600080fd5b9392505050565b610c59806100936000396000f3fe6080604052600436106100865760003560e01c8063789770f411610059578063789770f414610129578063a747b93b14610131578063b7b0422d14610167578063b8c876b11461017a578063d0e30db0146101a757600080fd5b806315770f921461008b5780632071a9f4146100b45780632e1a7d4d146100d457806370b2a30f14610109575b600080fd5b34801561009757600080fd5b506100a160015481565b6040519081526020015b60405180910390f35b3480156100c057600080fd5b506100a16100cf366004610aa4565b6101af565b3480156100e057600080fd5b506100f46100ef366004610ad0565b6101fe565b604080519283526020830191909152016100ab565b34801561011557600080fd5b506100a1610124366004610ad0565b61044b565b6100a16105d2565b34801561013d57600080fd5b506100a161014c366004610ae9565b6001600160a01b031660009081526002602052604090205490565b6100a1610175366004610ad0565b61072a565b34801561018657600080fd5b506100a1610195366004610ae9565b60026020526000908152604090205481565b6100a16108d1565b6000806101be856103e5610b2f565b905060006101cc8483610b2f565b90506000826101dd876103e8610b2f565b6101e79190610b4c565b90506101f38183610b5f565b979650505050505050565b3360009081526002602052604081205481908311156102645760405162461bcd60e51b815260206004820152601b60248201527f4445583a20696e73756666696369656e74206c6971756964697479000000000060448201526064015b60405180910390fd5b600080546040516370a0823160e01b81523060048201524792916001600160a01b0316906370a0823190602401602060405180830381865afa1580156102ae573d6000803e3d6000fd5b505050506040513d601f19601f820116820180604052508101906102d29190610b81565b6001549091506102e28387610b2f565b6102ec9190610b5f565b6001549094506102fc8287610b2f565b6103069190610b5f565b3360009081526002602052604081208054929550879290919061032a908490610b9a565b9250508190555084600160008282546103439190610b9a565b9091555050604051339085156108fc029086906000818181858888f19350505050158015610375573d6000803e3d6000fd5b5060005460405163a9059cbb60e01b8152336004820152602481018590526001600160a01b039091169063a9059cbb906044016020604051808303816000875af11580156103c7573d6000803e3d6000fd5b505050506040513d601f19601f820116820180604052508101906103eb9190610bad565b6104075760405162461bcd60e51b815260040161025b90610bcf565b7f1dc8bb69df2b8e91fbdcbfcf93d951b3f0000f085a95fe3f7946d6161439245d3386858760405161043c9493929190610bfd565b60405180910390a15050915091565b600080546040516370a0823160e01b815230600482015282916001600160a01b0316906370a0823190602401602060405180830381865afa158015610494573d6000803e3d6000fd5b505050506040513d601f19601f820116820180604052508101906104b89190610b81565b90506104c58382476101af565b6000546040516323b872dd60e01b8152336004820152306024820152604481018690529193506001600160a01b0316906323b872dd906064016020604051808303816000875af115801561051d573d6000803e3d6000fd5b505050506040513d601f19601f820116820180604052508101906105419190610bad565b61055d5760405162461bcd60e51b815260040161025b90610bcf565b604051339083156108fc029084906000818181858888f1935050505015801561058a573d6000803e3d6000fd5b5060408051338152602081018590529081018390527f472303b1e7ca7d00fb77f255c0a8c577f9ca4264c0306aaed3ff18e831523a6d9060600160405180910390a150919050565b600080546040516370a0823160e01b815230600482015282916001600160a01b0316906370a0823190602401602060405180830381865afa15801561061b573d6000803e3d6000fd5b505050506040513d601f19601f8201168201806040525081019061063f9190610b81565b90506106553461064f8147610b9a565b836101af565b60005460405163a9059cbb60e01b8152336004820152602481018390529193506001600160a01b03169063a9059cbb906044016020604051808303816000875af11580156106a7573d6000803e3d6000fd5b505050506040513d601f19601f820116820180604052508101906106cb9190610bad565b6106e75760405162461bcd60e51b815260040161025b90610bcf565b6040805133815260208101849052348183015290517f6d4870e9281c01ea54a4420c8684ac713b77f0c590b40c4b1fbf4c6ba892ccea9181900360600190a15090565b600060015460001461077e5760405162461bcd60e51b815260206004820152601860248201527f4445583a20616c726561647920696e697469616c697a65640000000000000000604482015260640161025b565b60008211801561078e5750600034115b6107da5760405162461bcd60e51b815260206004820152601c60248201527f4445583a20696e76616c696420696e697469616c20616d6f756e747300000000604482015260640161025b565b47600181905533600081815260026020526040808220939093555491516323b872dd60e01b81526004810191909152306024820152604481018490526001600160a01b03909116906323b872dd906064016020604051808303816000875af115801561084a573d6000803e3d6000fd5b505050506040513d601f19601f8201168201806040525081019061086e9190610bad565b61088a5760405162461bcd60e51b815260040161025b90610bcf565b7f3bca7014f4c0ccc8016338c79f4c00e82068dbadaf4f01ca5449040fdd39f5003360015434856040516108c19493929190610bfd565b60405180910390a1505060015490565b6000806108de3447610b9a565b600080546040516370a0823160e01b815230600482015292935090916001600160a01b03909116906370a0823190602401602060405180830381865afa15801561092c573d6000803e3d6000fd5b505050506040513d601f19601f820116820180604052508101906109509190610b81565b905060008261095f8334610b2f565b6109699190610b5f565b6000546040516323b872dd60e01b8152336004820152306024820152604481018390529192506001600160a01b0316906323b872dd906064016020604051808303816000875af11580156109c1573d6000803e3d6000fd5b505050506040513d601f19601f820116820180604052508101906109e59190610bad565b610a015760405162461bcd60e51b815260040161025b90610bcf565b60008360015434610a129190610b2f565b610a1c9190610b5f565b33600090815260026020526040812080549293508392909190610a40908490610b4c565b925050819055508060016000828254610a599190610b4c565b90915550506040517f3bca7014f4c0ccc8016338c79f4c00e82068dbadaf4f01ca5449040fdd39f50090610a94903390849034908790610bfd565b60405180910390a1509392505050565b600080600060608486031215610ab957600080fd5b505081359360208301359350604090920135919050565b600060208284031215610ae257600080fd5b5035919050565b600060208284031215610afb57600080fd5b81356001600160a01b0381168114610b1257600080fd5b9392505050565b634e487b7160e01b600052601160045260246000fd5b8082028115828204841417610b4657610b46610b19565b92915050565b80820180821115610b4657610b46610b19565b600082610b7c57634e487b7160e01b600052601260045260246000fd5b500490565b600060208284031215610b9357600080fd5b5051919050565b81810381811115610b4657610b46610b19565b600060208284031215610bbf57600080fd5b81518015158114610b1257600080fd5b6020808252601490820152731111560e881d1c985b9cd9995c8819985a5b195960621b604082015260600190565b6001600160a01b039490941684526020840192909252604083015260608201526080019056fea26469706673582212209b1bbc71492f6acd2e99221fc6a5eccb341268abbdcbba1ab7826a856a86529a64736f6c63430008110033",
  "devdoc": {
    "kind": "dev",
    "methods": {},
    "version": 1
  },
  "userdoc": {
    "kind": "user",
    "methods": {},
    "version": 1
  },
  "storageLayout": {
    "storage": [
      {
        "astId": 737,
        "contract": "contracts/DEX.sol:DEX",
        "label": "token",
        "offset": 0,
        "slot": "0",
        "type": "t_contract(IERC20)664"
      },
      {
        "astId": 739,
        "contract": "contracts/DEX.sol:DEX",
        "label": "totalLiquidity",
        "offset": 0,
        "slot": "1",
        "type": "t_uint256"
      },
      {
        "astId": 743,
        "contract": "contracts/DEX.sol:DEX",
        "label": "liquidity",
        "offset": 0,
        "slot": "2",
        "type": "t_mapping(t_address,t_uint256)"
      }
    ],
    "types": {
      "t_address": {
        "encoding": "inplace",
        "label": "address",
        "numberOfBytes": "20"
      },
      "t_contract(IERC20)664": {
        "encoding": "inplace",
        "label": "contract IERC20",
        "numberOfBytes": "20"
      },
      "t_mapping(t_address,t_uint256)": {
        "encoding": "mapping",
        "key": "t_address",
        "label": "mapping(address => uint256)",
        "numberOfBytes": "32",
        "value": "t_uint256"
      },
      "t_uint256": {
        "encoding": "inplace",
        "label": "uint256",
        "numberOfBytes": "32"
      }
    }
  }
}