{
  "address": "0x3350259f7e0d403Bd17D48F36B61D9162079ebED",
  "abi": [
    {
      "inputs": [
        {
          "internalType": "address",
          "name": "exampleExternalContractAddress",
          "type": "address"
        }
      ],
      "stateMutability": "nonpayable",
      "type": "constructor"
    },
    {
      "anonymous": false,
      "inputs": [
        {
          "indexed": true,
          "internalType": "address",
          "name": "staker",
          "type": "address"
        },
        {
          "indexed": false,
          "internalType": "uint256",
          "name": "amount",
          "type": "uint256"
        }
      ],
      "name": "Stake",
      "type": "event"
    },
    {
      "inputs": [
        {
          "internalType": "address",
          "name": "",
          "type": "address"
        }
      ],
      "name": "balances",
      "outputs": [
        {
          "internalType": "uint256",
          "name": "",
          "type": "uint256"
        }
      ],
      "stateMutability": "view",
      "type": "function"
    },
    {
      "inputs": [],
      "name": "deadline",
      "outputs": [
        {
          "internalType": "uint256",
          "name": "",
          "type": "uint256"
        }
      ],
      "stateMutability": "view",
      "type": "function"
    },
    {
      "inputs": [],
      "name": "exampleExternalContract",
      "outputs": [
        {
          "internalType": "contract ExampleExternalContract",
          "name": "",
          "type": "address"
        }
      ],
      "stateMutability": "view",
      "type": "function"
    },
    {
      "inputs": [],
      "name": "execute",
      "outputs": [],
      "stateMutability": "nonpayable",
      "type": "function"
    },
    {
      "inputs": [],
      "name": "stake",
      "outputs": [],
      "stateMutability": "payable",
      "type": "function"
    },
    {
      "inputs": [
        {
          "internalType": "uint256",
          "name": "",
          "type": "uint256"
        }
      ],
      "name": "stakers",
      "outputs": [
        {
          "internalType": "address",
          "name": "",
          "type": "address"
        }
      ],
      "stateMutability": "view",
      "type": "function"
    },
    {
      "inputs": [],
      "name": "threshold",
      "outputs": [
        {
          "internalType": "uint256",
          "name": "",
          "type": "uint256"
        }
      ],
      "stateMutability": "view",
      "type": "function"
    },
    {
      "inputs": [],
      "name": "timeLeft",
      "outputs": [
        {
          "internalType": "uint256",
          "name": "",
          "type": "uint256"
        }
      ],
      "stateMutability": "view",
      "type": "function"
    },
    {
      "inputs": [],
      "name": "withdraw",
      "outputs": [],
      "stateMutability": "nonpayable",
      "type": "function"
    },
    {
      "stateMutability": "payable",
      "type": "receive"
    }
  ],
  "transactionHash": "0xb2a3255efaeb2653eaaa1cdd4a62e7c0a92bf46cfab4040b58195a42a2549322",
  "args": [
    "0x45bA973bEF2b81Ffc1ee63D06A6C97588fee69F1"
  ],
  "numDeployments": 1,
  "solcInputHash": "8c8b90ea8c508d2146adf825a2fddbcd",
  "bytecode": "0x6080604052610011426203f480610092565b60035534801561002057600080fd5b5060405161087a38038061087a83398101604081905261003f91610064565b600080546001600160a01b0319166001600160a01b03929092169190911790556100b6565b600060208284031215610075578081fd5b81516001600160a01b038116811461008b578182fd5b9392505050565b600082198211156100b157634e487b7160e01b81526011600452602481fd5b500190565b6107b5806100c56000396000f3fe60806040526004361061008a5760003560e01c80633ccfd60b116100595780633ccfd60b1461011157806342cde4e81461012657806361461954146101425780639f75f22714610157578063fd5e6dd11461018f57600080fd5b80631300a6d11461009e57806327e235e3146100c657806329dcb0cf146100f35780633a4b66f11461010957600080fd5b36610099576100976101af565b005b600080fd5b3480156100aa57600080fd5b506100b3610297565b6040519081526020015b60405180910390f35b3480156100d257600080fd5b506100b36100e13660046106d9565b60026020526000908152604090205481565b3480156100ff57600080fd5b506100b360035481565b6100976101af565b34801561011d57600080fd5b506100976102bb565b34801561013257600080fd5b506100b3678ac7230489e8000081565b34801561014e57600080fd5b506100976104f0565b34801561016357600080fd5b50600054610177906001600160a01b031681565b6040516001600160a01b0390911681526020016100bd565b34801561019b57600080fd5b506101776101aa366004610707565b6105d2565b60035442106101fe5760405162461bcd60e51b815260206004820152601660248201527529ba30b5b4b733903832b934b7b21034b99037bb32b960511b60448201526064015b60405180910390fd5b600180548082019091557fb10e2d527612073b26eecdfd717e6a320cf44b4afac2b0732d9fcbe2b7fa0cf60180546001600160a01b031916339081179091556000908152600260205260408120805434929061025b90849061071f565b909155505060405134815233907febedb8b3c678666e7f36970bc8f57abf6d8fa2e828c0da91ea5b75bf68ed101a9060200160405180910390a2565b600060035442106102a85750600090565b426003546102b69190610737565b905090565b33600090815260026020526040902054806103115760405162461bcd60e51b81526020600482015260166024820152754e6f2062616c616e636520746f20776974686472617760501b60448201526064016101f5565b60005b60015481101561044d57336001600160a01b03166001828154811061034957634e487b7160e01b600052603260045260246000fd5b6000918252602090912001546001600160a01b0316141561043b5760018054610373908290610737565b8154811061039157634e487b7160e01b600052603260045260246000fd5b600091825260209091200154600180546001600160a01b0390921691839081106103cb57634e487b7160e01b600052603260045260246000fd5b9060005260206000200160006101000a8154816001600160a01b0302191690836001600160a01b03160217905550600180548061041857634e487b7160e01b600052603160045260246000fd5b600082815260209020810160001990810180546001600160a01b03191690550190555b806104458161074e565b915050610314565b50336000818152600260205260408082208290555190919083908381818185875af1925050503d806000811461049f576040519150601f19603f3d011682016040523d82523d6000602084013e6104a4565b606091505b50509050806104ec5760405162461bcd60e51b81526020600482015260146024820152732330b4b632b2103a379039b2b7321022ba3432b960611b60448201526064016101f5565b5050565b60035442101561054c5760405162461bcd60e51b815260206004820152602160248201527f446561646c696e6520686173206e6f74206265656e20726561636865642079656044820152601d60fa1b60648201526084016101f5565b678ac7230489e8000047101561056157600080fd5b60008054906101000a90046001600160a01b03166001600160a01b031663522e1177476040518263ffffffff1660e01b81526004016000604051808303818588803b1580156105af57600080fd5b505af11580156105c3573d6000803e3d6000fd5b50505050506105d06105fc565b565b600181815481106105e257600080fd5b6000918252602090912001546001600160a01b0316905081565b60005b6001548110156106d65760006001828154811061062c57634e487b7160e01b600052603260045260246000fd5b60009182526020808320909101546001600160a01b0316808352600290915260409091205490915080156106c15760005460405163cc6dbc2760e01b81526001600160a01b038481166004830152602482018490529091169063cc6dbc2790604401600060405180830381600087803b1580156106a857600080fd5b505af11580156106bc573d6000803e3d6000fd5b505050505b505080806106ce9061074e565b9150506105ff565b50565b6000602082840312156106ea578081fd5b81356001600160a01b0381168114610700578182fd5b9392505050565b600060208284031215610718578081fd5b5035919050565b6000821982111561073257610732610769565b500190565b60008282101561074957610749610769565b500390565b600060001982141561076257610762610769565b5060010190565b634e487b7160e01b600052601160045260246000fdfea2646970667358221220cd3f83c1a885263a604c689348b6c55611b8a8eb472625ffe7b96bc31fb947f764736f6c63430008040033",
  "devdoc": {
    "kind": "dev",
    "methods": {
      "execute()": {
        "details": "      "
      },
      "stake()": {
        "details": ""
      },
      "timeLeft()": {
        "details": "    "
      },
      "withdraw()": {
        "details": "      "
      }
    },
    "version": 1
  },
  "userdoc": {
    "kind": "user",
    "methods": {},
    "version": 1
  },
  "storageLayout": {
    "storage": [
      {
        "astId": 65,
        "contract": "contracts/Staker.sol:Staker",
        "label": "exampleExternalContract",
        "offset": 0,
        "slot": "0",
        "type": "t_contract(ExampleExternalContract)58"
      },
      {
        "astId": 68,
        "contract": "contracts/Staker.sol:Staker",
        "label": "stakers",
        "offset": 0,
        "slot": "1",
        "type": "t_array(t_address)dyn_storage"
      },
      {
        "astId": 72,
        "contract": "contracts/Staker.sol:Staker",
        "label": "balances",
        "offset": 0,
        "slot": "2",
        "type": "t_mapping(t_address,t_uint256)"
      },
      {
        "astId": 81,
        "contract": "contracts/Staker.sol:Staker",
        "label": "deadline",
        "offset": 0,
        "slot": "3",
        "type": "t_uint256"
      }
    ],
    "types": {
      "t_address": {
        "encoding": "inplace",
        "label": "address",
        "numberOfBytes": "20"
      },
      "t_array(t_address)dyn_storage": {
        "base": "t_address",
        "encoding": "dynamic_array",
        "label": "address[]",
        "numberOfBytes": "32"
      },
      "t_contract(ExampleExternalContract)58": {
        "encoding": "inplace",
        "label": "contract ExampleExternalContract",
        "numberOfBytes": "20"
      },
      "t_mapping(t_address,t_uint256)": {
        "encoding": "mapping",
        "key": "t_address",
        "label": "mapping(address => uint256)",
        "numberOfBytes": "32",
        "value": "t_uint256"
      },
      "t_uint256": {
        "encoding": "inplace",
        "label": "uint256",
        "numberOfBytes": "32"
      }
    }
  }
}